:1000000014C024C022C021C020C01FC01EC01DC0FB
:100010001CC01BC01AC019C018C02CC016C015C007
:1000200014C013C012C011C010C011241FBECFE5F0
:10003000D1E0DEBFCDBF20E0A0E6B0E001C01D9260
:10004000A836B207E1F7E8D021C2DACF1F920F92AB
:100050000FB60F9211248F939F9381E090E09093BD
:100060006700809366009F918F910F900FBE0F9055
:100070001F9018951F920F920FB60F9211248F9315
:100080009F93809164009091650001969093650024
:10009000809364009F918F910F900FBE0F901F90DF
:1000A0001895CF92DF92EF92FF9212BE10926500E8
:1000B0001092640020E030E040EF51E42BD16B015E
:1000C0007C01609164007091650080E090E0C1D097
:1000D000A7019601BAD087FDF4CFFF90EF90DF9093
:1000E000CF9008951F93CF93DF93809160009091FC
:1000F00061008230910509F45CC048F4009701F179
:10010000019709F085C0C6E0D0E012E045C0843018
:10011000910509F46AC008F456C0059709F078C043
:1001200088B3877E88BB88B3806688BB60E070E058
:1001300080E89FE3B6DF109261001092600068C013
:10014000C29888B3826688BB8091620090916300F8
:10015000892B61F460E070E080E291E4A2DF81E04D
:1001600090E0909363008093620052C0809166009B
:1001700090916700892B09F44BC081E090E0909347
:1001800061008093600010926700109266001092E8
:100190006300109262003CC088B3812788BB60E096
:1001A00070E080E09FE37DDF2197B1F782E090E08F
:1001B0002BC0C198C29A60E070E080E89FE371DFD5
:1001C00083E090E021C0109267001092660088B32F
:1001D0008F7988BB88B3886188BB60E070E080E27B
:1001E00091E45FDF84E090E00FC0C6E0D0E018E16A
:1001F00088B3812788BB60E070E080E09FE351DF37
:100200002197B1F785E090E09093610080936000C2
:10021000DF91CF911F9108958BB780648BBF85B715
:10022000826085BF789480B7826080BF89B7816023
:1002300089BF83B7856083BF8FEF86BF8A9887B3F6
:100240008E6787BB18BA4EDFFECF40D008F481E03E
:100250000895E89409C097FB3EF4909580957095B9
:1002600061957F4F8F4F9F4F9923A9F0F92F96E902
:10027000BB279395F695879577956795B795F11177
:10028000F8CFFAF4BB0F11F460FF1BC06F5F7F4F14
:100290008F4F9F4F16C0882311F096E911C0772326
:1002A00021F09EE8872F762F05C0662371F096E82F
:1002B000862F70E060E02AF09A95660F771F881FFE
:1002C000DAF7880F9695879597F90895990F0008A2
:1002D000550FAA0BE0E8FEEF16161706E807F90718
:1002E000C0F012161306E407F50798F0621B730BB3
:1002F000840B950B39F40A2661F0232B242B252B34
:1003000021F408950A2609F4A140A6958FEF811DD6
:10031000811D08950AD080C071D028F076D018F0E1
:10032000952309F062C067C0ABC087D0A8F39923BA
:10033000D9F35523C9F3950F50E0551FAA27EE278F
:10034000FF27BB2700240894679520F4E20FF31FD2
:10035000B41F0A1E220F331F441FAA1F6695A9F758
:10036000779530F4F30FB41F0A1E121E08F463953C
:10037000330F441FAA1F221F769599F7879520F403
:10038000B40F0A1E121E631F440FAA1F221F331F21
:100390008695A9F7862F712D602D11249F57504007
:1003A0008AF0E1F088234AF0EE0FFF1FBB1F661FA3
:1003B000771F881F91505040A9F79E3F510570F05C
:1003C00014C05EC05F3FECF3983EDCF386957795F2
:1003D0006795B795F795E7959F5FC1F7FE2B880F57
:1003E000911D9695879597F9089597F99F6780E8ED
:1003F00070E060E008959FEF80EC089500240A9477
:100400001616170618060906089500240A941216EF
:100410001306140605060895092E0394000C11F422
:10042000882352F0BB0F40F4BF2B11F460FF04C0CF
:100430006F5F7F4F8F4F9F4F089557FD9058440F28
:10044000551F59F05F3F71F04795880F97FB991F33
:1004500061F09F3F79F087950895121613061406F0
:10046000551FF2CF4695F1DF08C01616170618067D
:10047000991FF1CF86957105610508940895E89458
:10048000BB2766277727CB0197F90895F894FFCF0C
:00000001FF
